:1000000001308A00EF2900000A108A100A118207C5
:1000100028340C34013406348C0661366937613774
:100020002032E5336539A01273003E30840083131B
:100030000008031929280130F800F701F70B1E28E2
:10004000F80B1D284A30F700F70B24282728800BCF
:100050001B280800450EF039F7000F30060577041D
:100060008600000006143428061008000608F70071
:10007000060E0F39F80008008316061086100611C8
:10008000831286100F3083160605F038860083121F
:10009000061500000614000036207808C50006107A
:1000A00000000614000036207808C40006100F3047
:1000B0008316060586008312450EF700F030F7051B
:1000C00077084404F8007808C400C41B4228421C86
:1000D0008610421886140000061100000610430E18
:1000E000C4000F30C4054408C5002A2043080F3956
:1000F000C400C5002A2008000F30831606058600BC
:1001000006108610061183128610061106100F3095
:10011000BE0015200130B8003808033C031C9828A5
:100120000330C5002A200530BE001520B80A8C28EF
:100130000230C5002A200530BE001520B80138085D
:10014000033C031CAC2838080420B900C20139085C
:10015000C3003C20B80A9F288A110A121E2A3F08B1
:10016000F8013E020318B7283E08F700C328F7013C
:100170000830C000BE0DF70D3F0877020318F700E6
:10018000F80DC00BBA28080036088400831337180E
:1001900083173E088000840A8001B60A0319B70A53
:1001A00008002030391E3030BA003808F700B81F78
:1001B000E128F709F70A7708B8002D30BA00B91717
:1001C00039143808BE006430BF00AF207708B8008B
:1001D00030307807BB003808BE000A30BF00AF20BF
:1001E00030307707BD0030307807BC003A08F700A0
:1001F00030303B0203190029B914B91B39151429F1
:100200003A08BB002030BA0030303C0203190C29F8
:100210003914B91BB9141429031D3914031D1429E9
:100220003B08BC002030BB0039191B29B9181E2916
:100230003918212924293A08BE00C4203B08BE00F1
:10024000C4203C08BE00C4203D08BE00C4208A1162
:100250000A122C2A3F0B2D2930294030C0003129A9
:10026000C00101303E02C00740088038C100C20111
:100270004108C3003C2008003D08073A03194A29F9
:100280000B3A03194F29063A03195729023A031961
:100290005D2962290130BE00BF002A216729C20101
:1002A0000130C3003C200230BE0015206729013018
:1002B000BE000230BF002A216729C2011030C300EE
:1002C0003C2067290130C2003D08C3003C200800E3
:1002D0000B08B9008B13831603178C170C1400003E
:1002E000000003189A2983120C087F390313BA00FF
:1002F00003170D080313BB0003170F080313BC00FB
:100300003A08BD003C213B0803178D0003133C084D
:1003100003178F0083168C170C1400000000831243
:100320000313B80B94299729831603179A29B9291F
:100330008316031783120C0D0E0D7F390313BA00B9
:1003400003170D080313BB0003170F080313BC00AA
:100350003A08BD003C213B0803178D0003133C08FD
:1003600003178F008D0A03198F0A03100313B80BAC
:100370006B29B91B8B178A110A12442A80080319AA
:10038000D329B9010408B8003910831B39140008B7
:10039000BD003C2138088400831339188317840A70
:1003A0000319850ABE298A110A12482A80080319EE
:1003B000EC29B9010408B8003910831B391400086E
:1003C0000C1EE0299900380884008313391883171C
:1003D000840A0319850AD6298A110A12532A193068
:1003E00083169900A6309800903083129800FF3051
:1003F000B500B701B60183161F149F141F159F1176
:1004000007309C0083131F3083050912831290016B
:100410000030F80092000030831692001F149F14E1
:100420001F159F1183121F10F03097059D05B512FF
:10043000350883168700831287127C28FF308316C5
:10044000850083120508B400B7012A30B6003408CD
:10045000B8001830B900D1282030840083138403F9
:10046000840A8C1E312A1A0880000D300002031DF8
:10047000302A80010C3003178D0000308F000310EC
:100480000F300313B8006829203084008313BE297D
:100490000430B800FA30BE001520B80B4A2A2A30C2
:1004A00084008313D6290D300C1E542A99000A307B
:0A04B0000C1E582A99001E2A630052
:02400E00393F38
:00000001FF
;PIC16F877A
;CRC=FAFE  CREATED="04-Ara-17 22:52"
