:1000000001308A00EF2900000A108A100A118207C5
:1000100028340C34013406348C0661366937613774
:100020002032E5336539A01273003D30840083131C
:100030000008031929280130F800F701F70B1E28E2
:10004000F80B1D284A30F700F70B24282728800BCF
:100050001B280800440EF039F7000F30060577041E
:100060008600000006143428061008000608F70071
:10007000060E0F39F80008008316061086100611C8
:10008000831286100F3083160605F038860083121F
:10009000061500000614000036207808C40006107B
:1000A00000000614000036207808C30006100F3048
:1000B0008316060586008312440EF700F030F7051C
:1000C00077084304F8007808C300C31B4228411C8A
:1000D0008610411886140000061100000610420E1A
:1000E000C3000F30C3054308C4002A2042080F395B
:1000F000C300C4002A2008000F30831606058600BE
:1001000006108610061183128610061106100F3095
:10011000BD0015200130B7003708033C031C9828A8
:100120000330C4002A200530BD001520B70A8C28F2
:100130000230C4002A200530BD001520B701370861
:10014000033C031CAC2837080420B800C101380860
:10015000C2003C20B70A9F288A110A12162A3E08BC
:10016000F8013D020318B7283D08F700C328F7013E
:100170000830BF00BD0DF70D3E0877020318F700E9
:10018000F80DBF0BBA280800350884008313361811
:1001900083173D088000840A8001B50A0319B60A56
:1001A00008002030381E3030B9003708F700B71F7C
:1001B000E128F709F70A7708B7002D30B900B8171A
:1001C00038143708BD006430BE00AF207708B70090
:1001D00030307807BA003708BD000A30BE00AF20C3
:1001E00030307707BC0030307807BB003908F700A3
:1001F00030303A0203190029B814B81B38151429F5
:100200003908BA002030B90030303B0203190C29FC
:100210003814B81BB8141429031D3814031D1429ED
:100220003A08BB002030BA0038191B29B8181E291B
:100230003818212924293908BD00C4203A08BD00F6
:10024000C4203B08BD00C4203C08BD00C4208A1166
:100250000A12242A800803194029B8010408B700AB
:100260003810831B381400080C1E342999003708F5
:100270008400831338188317840A0319850A2A29EE
:100280008A110A12282A3E0B462949294030BF000C
:100290004A29BF0101303D02BF073F088038C00036
:1002A000C1014008C2003C2008003C08073A03197D
:1002B00063290B3A03196829063A03197029023A8F
:1002C000031976297B290130BD00BE004321802916
:1002D000C1010130C2003C200230BD001520802940
:1002E0000130BD000230BE0043218029C101103021
:1002F000C2003C2080290130C1003C08C2003C20E3
:1003000008000B08B8008B13831603178C170C1406
:10031000000000000318B32983120C087F3903136F
:10032000B90003170D080313BA0003170F080313CE
:10033000BB003908BC0055213A0803178D00031390
:100340003B0803178F0083168C170C140000000065
:1003500083120313B70BAD29B02983160317B329F2
:10036000D2298316031783120C0D0E0D7F39031348
:10037000B90003170D080313BA0003170F0803137E
:10038000BB003908BC0055213A0803178D00031340
:100390003B0803178F008D0A03198F0A03100313FC
:1003A000B70B8429B81B8B178A110A12482A8008B8
:1003B0000319EC29B8010408B7003810831B38145E
:1003C0000008BC00552137088400831338188317B0
:1003D000840A0319850AD7298A110A124C2A19306E
:1003E00083169900A6309800903083129800B601C9
:1003F000B50183161F149F141F159F1107309C0011
:1004000083131F3083050912831290010030F80016
:1004100092000030831692001F149F141F159F1125
:1004200083121F10F03097059D057C28FF3083163E
:10043000850083120508B400B6012A30B5003408DF
:10044000B7001830B800D1282A30840083132A2935
:100450000D300C1E292A99000A300C1E2D2A9900F5
:100460002030840083138403840A8C1E352A1A08E2
:1004700080000D300002031D342A80010C30031768
:100480008D0000308F0003100F300313B700812957
:10049000203084008313D7290430B700FA30BD0020
:0A04A0001520B70B4E2A162A630040
:02400E00393F38
:00000001FF
;PIC16F877A
;CRC=70A7  CREATED="04-Ara-17 22:54"
